:060CFD00C2A58F80D2A702
:080D03007F027EEFDEFEDFFC43
:010D0B0022C5
:0A0D1900C2A6120CFDC2A7020D03D2
:0A0D2300D2A6120CFDC2A7020D03B8
:100CA4007F38120D197F0C120D197F06120D197F52
:040CB40001020D1913
:100CDD00EDBF0103148002243F4480FF120D192241
:0A0D2D00AC03120CDDAF04020D232D
:080C1C008E138F148C158D1648
:100C24007F017E00E4FBEBC39516E5156480F87440
:0E0C34008098500AAC13AD141204960B80E8A1
:010C4200228F
:040B8B008A0F8B1032
:100B8F00120CDDAA12EAD39400402DEA24FFFDE4F3
:100B9F0034FFFC7F0A7E00120C1CAC0FAD10CFCDC2
:100BAF00CFCECCCE1204A87C007D0A1204A8ED246F
:080BBF0030FF120D231A80CD56
:010BC700220B
:100C4300D2B7C2B77FF7DFFED2B77F20DFFEA2B7EE
:090C5300E433FE7FF7DFFEAF067B
:010C5C002275
:100CCB00C2B77E04DEFEEF24FF92B77E18DEFED2A3
:010CDB00B761
:010CDC0022F5
:100C7600C2B77F02DFFED2B77F02DFFEA2B7E43340
:070C8600FE7F18DFFEAF0640
:010C8D002244
:020C5D00AD07E1
:100C5F00E4FC7401A804088002C333D8FC5DFF12C2
:060C6F000CCB0CBC08ECEC
:010C7500225C
:10000300E4FDFC120C76EF600D7401A80408800275
:0C001300C333D8FC42050CBC08E9AF0563
:01001F0022BE
:0F0CED000432454E440003213F2100023600002F
:040BF4007FE87E0315
:100BF800D3EF9400EE6480948040187DC7D3ED64F1
:100C080080948040077C01DCFE1D80F1EF1F70E0BE
:030C18001E80DD5E
:010C1B0022B6
:100C8E00759850758920758780758DF3758BF3D2A5
:060C9E00ACD2AFD28E22A1
:030023000205E9EA
:1005E900C0E0C0F0C083C082C0D075D000C000C0D8
:1005F90001C002C003C004C005C006C007C2988577
:10060900993E853E993099FDC299E53EB448046406
:100619004C6007742A2537F8A63E0537E53770027E
:100629000536E53E64486009E53E644C600302080E
:10063900B0E53E644C6003020755F53FF540742E62
:100649002540F876000540E5407002053F64044501
:100659003F70EBE53724FFF542E53634FFF5417588
:100669003F00754000E53724FFFFE53634FFFEC340
:10067900E5409FEE6480F8E53F6480985025C3E526
:10068900379542FF74292FF8E6FF742E2540F8A606
:1006990007E5421542700215410540E54070C6055F
:1006A9003F80C2753F00754000742A2540F87600E6
:1006B9000540E5407002053F6404453F70EB75361F
:1006C900007537007B007A00792E120B43120294D1
:1006D9008E498F4AAC49AD4AEC12025BAB3DAA3C4C
:1006E900A93BA83A1201CC50607B657D017F0212BB
:1006F9000D2D7B727D027F02120D2D7B727D037F92
:1007090002120D2D7B6F7D047F02120D2D7B727DF0
:10071900057F02120D2D7B217D067F02120D2D1200
:100729000BF4753F00754000D2957F887E13120B3C
:10073900F8C2950540E5407002053FC3940AE53FBC
:100749006480948040E20208B002086EE53E644885
:1007590060030208B0F53FF54074452540F876007E
:100769000540E5407002053F6404453F70EBE537FD
:1007790024FFF542E53634FFF541753F0075400029
:10078900E53724FFFFE53634FFFEC3E5409FEE64FD
:1007990080F8E53F6480985025C3E5379542FF749A
:1007A900292FF8E6FF74452540F8A607E5421542CA
:1007B900700215410540E54070C6053F80C2753F8E
:1007C90000754000742A2540F876000540E5407020
:1007D90002053F6404453F70EB7536007537007BB1
:1007E900007A007945120B431202948E388F39AC86
:1007F90038AD39EC12025BAB3DAA3CA93BA83A12D1
:1008090001CC6061405F7B657D017F02120D2D7B0C
:10081900727D027F02120D2D7B727D037F02120D04
:100829002D7B6F7D047F02120D2D7B727D057F026A
:10083900120D2D7B217D067F02120D2D120BF475F1
:100849003F00754000D2957F887E13120BF8C29540
:100859000540E5407002053FC3940AE53F64809472
:100869008040E280427B6E7D017F02120D2D7B6FFD
:100879007D027F02120D2D7B727D037F02120D2DE9
:100889007B6D7D047F02120D2D7B617D057F021238
:100899000D2D7B6C7D067F02120D2D7B217D077F3F
:1008A90002120D2D120BF4E53E64486006E53E6424
:1008B9004C702B8522993099FDC299753F0075407E
:1008C90000C2AC74322540F8E6F5993099FDC29919
:1008D9000540E5407002053F6409453F70E3D007D4
:1008E900D006D005D004D003D002D001D000D0D09A
:0908F900D082D083D0F0D0E032AF
:1009E800120CA47B547D017F01120D2D7B657D02C5
:1009F8007F01120D2D7B6D7D037F01120D2D7B7004
:100A08007D047F01120D2D7B3A7D057F01120D2D8E
:100A1800120D0C120BC88F3D8E3C8D3B8C3AE4FFB7
:100A2800FEFDFCAB3DAA3CA93BA83A1201CC501EE6
:100A38007B2D7D067F01120D2DAF3DAE3CAD3BAC4D
:100A48003A1202458F3D8E3C8D3B8C3A80097B2BB8
:100A58007D067F01120D2DAF3DAE3CAD3BAC3A1289
:100A68000294AB07AA067511007512037D077F0172
:100A7800120B8B7B2E7D0A7F01120D2D7F007E408D
:100A88007D1C7C46AB3DAA3CA93BA83A1200261225
:100A98000294E47B107A27F9F8120539751100756C
:0F0AA80012027D0B7F01120B8B120C8E020A18AB
:0D0D0C00120C437FCC120C5D7F44020C5D85
:100BC800120C437FCC120C5D7FBE120C5D12000329
:100BD8008F0D120003EFFEE50DFFFDAC06EC1202CF
:0B0BE8005BE4FBFA7980784112012FDA
:010BF30022DF
:10002600EC4D6011E8497017ED33EC3304600DE4D4
:10003600FCFFFEFD22E933E8330470F802030012E8
:1000460002CB58046009E4CC2481500628500902EA
:10005600030A284003020307C0E0EB4A7044B98054
:1000660006D0E0FB0202F6EF4E701CBD8008EBFFE7
:10007600EAFEE9FD80EBE98DF0A4FEE5F002010F52
:10008600E9CDF9EAFEEBFFEF89F0A4FCE5F0CE89B5
:10009600F0A42EFFE435F0CD89F0A42DFEE435F072
:1000A6008067EF4E7005BD80D780C3EF8BF0A4ACA0
:1000B600F0EE8BF0A42CFCE435F0F8EF8AF0A42CDB
:1000C600E5F038FCE433CB8DF0A42CFCE5F03BF8EE
:1000D600EE8AF0A42CFCE5F038F8E433CF89F0A4DE
:1000E6002CFCE5F038CF3400CE89F0A42FFFE5F0E4
:1000F6003EFEE433C98DF0A42EFEE5F039CD8AF03C
:10010600A42FFFE5F03EFEE43DFD33D0E0FB5007B3
:100116000BBB000F02030AEC2CFCEF33FFEE33FEA1
:06012600ED33FD0202E2D0
:10012C0002030AEC5D046005E85904700302030045
:10013C001202CB580460F6EC4860F2EC7004FDFE41
:10014C00FF22C860DB2481C85009C39860025006A6
:10015C000203079850CAF582E9294B4A7005AB8215
:10016C000202F675F0007C1A7880C3EF9BEE9AEDD4
:10017C0099400DC3EF9BFFEE9AFEED99FDE842F01E
:10018C00DC23ACF0D0E0FFD0E0FED0E0FDAB822071
:10019C00E7101BEB60BAEC2CFCEF33FFEE33FEEDFB
:1001AC0033FD0202E2E803F830E705C0F075F00019
:1001BC00EF2FFFEE33FEED33FD40B830E7C280AADF
:1001CC0074F8CC6480CCC86480C8F58204604FC3DA
:1001DC00EB9FF5F0EA9E42F0E99D42F0E89C45F079
:1001EC00603C501DE5825FFFE582D313CB5BCBF403
:1001FC002B5582FB50280ABA002409B9002008802C
:10020C001DE5825BFBE582D313CF5FCFF4C3132FC5
:10021C005582FF50090EBE00050DBD00010CC3EB4D
:10022C009FF5F0EA9E42F0E99D42F0E89C45F060B3
:09023C0007CC4820E701B3EC22D5
:10024500ED33EC33600A047003BD8004ECB2E7FCC7
:010255002286
:1002560075F020800E75F010800575F0087D007E23
:10026600007F003392D530D5031205CBEC33401016
:10027600EF33FFEE33FEED33FDEC33FCD5F0ED222C
:0E028600E5F0247EA2D513CC92E7CDCEFF2268
:10029400EDD2E7CD33EC3392D524814006E4FFFE62
:1002A400FDFC22FCE4CFCECDCC24E0501174FF80C1
:1002B400EDC3CC13CCCD13CDCE13CECF13CF04705E
:0702C400F030D5DE0205CB8E
:100B4300D2008B088A09890A120B7FC0E0FF120CBE
:100B5300B8D0E040F3120915400122ECC0E0EDC02B
:100B6300E0EEC0E0EFC0E0120B7FD0F0AFF0D0F0CA
:100B7300AEF0D0F0ADF0D0F0ACF080D9E475F00178
:080B830078081205D902047D77
:1002CB00E9D2E7C933E833F892D5EDD2E7CD33EC79
:0702DB0033FC5002B2D522F2
:1002E200EC30E7100FBF000C0EBE00080DBD00047D
:1002F2000BEB6014A2D5EB13FCED92E7FD2274FF29
:10030200FCFDFEFF22E480F8A2D574FF13FC7D8081
:03031200E480EF95
:10090200C201C202C203C204F9E4F50BF50CFCFDFC
:10091200FEFFE91000EA20030CB42D04D203D32217
:10092200B42B02D32224D0504794095041240A30D8
:100932000415F8850CF0740AA42872E74051C5F03A
:10094200704D85F00CD322D202C0E0E4FBFA79208C
:100952007841120026ECF8EDF9EEFAEFFBD0E0FC5C
:10096200E412026012031C3001B4150BD322240AD4
:10097200200420B4FE0720011AD201D32224EB6006
:100982000424E0700EA2039201D204C203D322C354
:10099200020300E430040BE50C300302F404A2016C
:1009A20092033002EA250B20D2E5A2E7920450021C
:1009B200F404B4260050D8CCC0E0EDC0E0EEC0E0B4
:1009C200EFC0E0EC12043DD0E0FFD0E0FED0E0FD4D
:1009D200D0E0FC200405120026800312012F300310
:0609E20003120245C322CE
:10031500020300E86480F8E933E83360110460F013
:10032500ED33EC337009E8FCE9FDEAFEEBFF22044E
:1003350060DED3EB9FEA9EE99DE8C2E78CF0C2F749
:1003450095F0400CE8CCF8E9CDF9EACEFAEBCFFB15
:100355001202CB85D0F05804700320D5B3E80470A1
:10036500075002B2D502030A92D5EC0460F7E4CC3B
:10037500C0E0C398F8603B94186008400DD0E0FBDE
:100385000202E2E4FBFAC9FC8028E830E406E4C98D
:10039500FBE4CAFCE830E305E4C9CACBFCE8540732
:1003A5006010F8C3E913F9EA13FAEB13FBEC13FC3D
:1003B500D8F130F52FC3E49CFCEF9BFFEE9AFEEDE0
:1003C50099FDD0E0FBEF4E4D4C701222DB0302038A
:1003D50007EC2CFCEF33FFEE33FEED33FDED30E79C
:1003E500EB0202E2EF2BFFEE3AFEED39FDD0E0FB2A
:1003F50050130BBB000302030AED13FDEE13FEEFD2
:0804050013FFEC13FC0202E2FC
:10040D003F8000004120000042C80000447A0000F7
:10041D00461C400047C35000497424004B18968079
:10042D004CBEBC205A0E1BCA6753C21C749DC5AE70
:10043D00FB60065407601C232312046BEB543860D9
:10044D0009120457120466120026ECF8EDF9EEFAC3
:10045D00EFCB22EB12046680F1543803241C900478
:10046D000DFE93FC0EEE93FD0EEE930ECE93FF223A
:03000000020AB73A
:0C0AB700787FE4F6D8FD75814A020AFE43
:10047D00BB010689828A83E0225002E722BBFE027D
:09048D00E32289828A83E49322B0
:10049600EF8DF0A4A8F0CF8CF0A428CE8DF0A42E7A
:0204A600FE2234
:1004A800BC000BBE0029EF8DF084FFADF022E4CC38
:1004B800F875F008EF2FFFEE33FEEC33FCEE9DEC01
:1004C800984005FCEE9DFE0FD5F0E9E4CEFD22ED47
:1004D800F8F5F0EE8420D21CFEADF075F008EF2F91
:1004E800FFED33FD4007985006D5F0F222C398FD82
:0504F8000FD5F0EA221F
:1004FD0075F008758200EF2FFFEE33FECD33CDCCB6
:10050D0033CCC58233C5829BED9AEC99E582984038
:10051D000CF582EE9BFEED9AFDEC99FC0FD5F0D615
:10052D00E4CEFBE4CDFAE4CCF9A88222B800C1B93F
:10053D000059BA002DEC8BF084CFCECDFCE5F0CB7D
:10054D00F97818EF2FFFEE33FEED33FDEC33FCEBB6
:10055D0033FB10D703994004EB99FB0FD8E5E4F971
:10056D00FA227818EF2FFFEE33FEED33FDEC33FC5E
:10057D00C933C910D7059BE99A4007EC9BFCE99A52
:10058D00F90FD8E0E4C9FAE4CCFB2275F010EF2F97
:10059D00FFEE33FEED33FDCC33CCC833C810D70797
:1005AD009BEC9AE899400AED9BFDEC9AFCE899F8D2
:0E05BD000FD5F0DAE4CDFBE4CCFAE4C8F92265
:0E05CB00C3E49FFFE49EFEE49DFDE49CFC2241
:1005D900FAE6FB0808E6F925F0F618E6CA3AF62223
:100CB800EFC394094005EF940E4003BF2003D3808F
:030CC80001C32243
:100AC3000209E8E493A3F8E493A34003F68001F258
:100AD30008DFF48029E493A3F85407240CC8C33334
:100AE300C4540F4420C8834004F456800146F6DF03
:100AF300E4800B0102040810204080900CEDE47E9A
:100B0300019360BCA3FF543F30E509541FFEE493F7
:100B1300A360010ECF54C025E060A840B8E493A3BE
:100B2300FAE493A3F8E493A3C8C582C8CAC583CAE9
:100B3300F0A3C8C582C8CAC583CADFE9DEE780BEA1
:010CFC0000F7
:00000001FF
